:020000040800F2
:10000000B035002041020008452F0008652900088E
:10001000352F0008E7150008493A000800000000E5
:10002000000000000000000000000000A90100081E
:10003000E915000800000000ED010008CD360008B9
:100040005B0200085B0200085B0200085B0200081C
:100050005B0200085B0200085B0200085B0200080C
:100060005B0200085B0200085B0200085B020008FC
:100070005B0200085B0200085B0200085B020008EC
:100080005B0200085B0200085B0200085B020008DC
:100090005B0200085B0200085B0200085B020008CC
:1000A0005B0200085B0200085B0200085B020008BC
:1000B0005B02000869370008753700085B0200081A
:1000C0005B0200085B0200085B0200085B0200089C
:1000D0005B0200085B0200083D3A00085B02000872
:1000E0005B0200085B0200085B02000800F002F8F7
:1000F00000F04AF80AA090E8000C82448344AAF178
:100100000107DA4501D100F03FF8AFF2090EBAE875
:100110000F0013F0010F18BFFB1A43F0010318473B
:100120006C7400008C740000103A24BF78C878C149
:10013000FAD8520724BF30C830C144BF04680C60ED
:10014000704700000023002400250026103A28BF35
:1001500078C1FBD8520728BF30C148BF0B60704739
:10016000662906F0A485642900F0A4800020704769
:100170001FB500F0EFFC04000020002106F048F954
:10018000E0601FBD10B510BD00F0E8FD1146FFF79F
:10019000EFFF04F0C5F800F006FE03B4FFF7F2FF2E
:1001A00003BC00F049FE0000224B19680868B0E863
:1001B000F00F80F30988BFF36F8F4FF0000080F3DA
:1001C00011884EF00D0E70470000000006480068D0
:1001D000006880F3088862B661B6BFF34F8FBFF343
:1001E0006F8F00DF00BF00BF08ED00E0EFF3098074
:1001F000BFF36F8F0F4B1A6820E9F00F106008B53E
:100200004FF0500080F31188BFF34F8FBFF36F8F13
:1002100005F06CFB4FF0000080F31188BDE808404A
:1002200019680868B0E8F00F80F30988BFF36F8F92
:10023000704700BF34000020EFF3058070470000D6
:100240000948804709480047FEE7FEE7FEE7FEE76A
:10025000FEE7FEE7FEE7FEE7FEE7FEE704480549A6
:10026000054A064B7047000067370008ED0000089C
:10027000B02F0020B0350020B0310020B031002078
:100280000FB41CB50C0007AA009001D02044401EFA
:10029000074B7B4469460190069800F0E6FB002C72
:1002A00003D06946002000F0F3FB1CBC5DF814FB92
:1002B000050800002DE9F041064600241068752964
:1002C000314616A510D0AFF30080002802DA404274
:1002D00013A507E031688A0701D512A502E0490796
:1002E00004D511A5012401E0AFF3008000210A220A
:1002F00006F1240709E0B0FBF2FCB0FBF2F302FBCD
:100300001C00303078541846491C0028F3D123468D
:100310002A463046BDE8F04100F03AB9000000003E
:100320002D0000002B000000200000002DE9F04708
:100330004FF0000A89460446C0F820A02046E16834
:100340008847002876D0252806D0D4E90121904797
:10035000206A401C2062F1E7E168204600268847B9
:10036000C4F81CA005460027C4F818A02A2D09D0FF
:10037000284603F071FC38B304EB8708303DC8F819
:10038000185019E059F8041B204604EB87029161CC
:10039000E1688847012F054618D1E069002820DA76
:1003A00026F020061DE0D8F8180000EB800005EBD1
:1003B00040003038C8F818002046E16888470546F4
:1003C00003F04AFC0028EED1012F0AD02E2D08D1CF
:1003D0002046E16888477F1C0546022F46F020062C
:1003E000C4DBA069002803DA404246F00106A061A0
:1003F000F00701D026F010066C2D0AD0682D08D029
:100400004C2D39D06A2D35D0742D35D07A2D33D07E
:1004100016E0E1682F4620468847B84205460AD1D3
:100420006C2F27D04FF48060E16806432046884750
:10043000054605E027E06C2F1AD04FF48070064384
:100440000DB3A5F14100192802D8203546F4006605
:100450004A462946204626604E46FFF781FE80B177
:1004600001280BD0F61D26F0070000F1080965E70A
:100470004020E4E78020D7E70020D5E706F1040913
:100480005CE7284661E7206ABDE8F087032A40F26E
:10049000308010F0030C00F0158011F8013BBCF126
:1004A000020F624498BF11F801CB00F8013B38BF3E
:1004B00011F8013BA2F1040298BF00F801CB38BF4C
:1004C00000F8013B11F0030300F0EF82083AC0F09E
:1004D000088051F8043B083A51F804CBA0E8081012
:1004E000F5E7121D5CBF51F8043B40F8043BAFF345
:1004F0000080D20724BF11F8013B11F801CB48BF9F
:1005000011F8012B24BF00F8013B00F801CB48BFD4
:1005100000F8012B704702F0FF0343EA032242EA8E
:10052000024200F0F6BA4FF0000200B513469446BE
:100530009646203922BFA0E80C50A0E80C50B1F13B
:100540002001BFF4F7AF090728BFA0E80C5048BF4F
:100550000CC05DF804EB890028BF40F8042B08BFED
:10056000704748BF20F8022B11F0804F18BF00F8E9
:10057000012B704770477047704710B500F0EEFAD6
:10058000006810BD10B5044600F0E8FA046010BD24
:100590002DE9F0470D4699469246044600F124089D
:1005A0000168880604D5E06921F01001216000E0AF
:1005B0000120A84201DD471B00E00027A1697A194C
:1005C00002EB0900081AA0612078C00602D4204678
:1005D000AFF30080002608E0D4E901211AF80600F4
:1005E0009047206A401C761C20624E45F4DB207840
:1005F000C0060AD52046AFF3008006E0D4E9012109
:1006000030209047206A401C2062381EA7F1010765
:10061000F4DC07E0D4E9012118F805009047206ACE
:10062000401C2062281EA5F10105F3DC2046AFF333
:1006300000802078000602D50220BDE8F087012066
:10064000FBE770472DE9FF4F0C461E464FF0FF3782
:100650008BB0D2E90001DDF860800A908A46C1F3D0
:100660000A5505B93D46002108464FF00000BAF191
:10067000000F00F4400005DA00EB80004FF4400169
:1006800001EA50004FEA9059B9F1010F00DDB94677
:100690000A9850EA4A000ED044F61050A5F2FF35F1
:1006A00045432F14B8F1000F1ED07542291E1EDDE0
:1006B000C9F100021CE0B8F1010F4FF0000001D0B9
:1006C000302103E0F24305E02154401CB042FBDB43
:1006D00030460022002121540B99C1F80880C1E95D
:1006E00000200FB0BDE8F08FBD1B6D1CDEE74A4651
:1006F00000DA694206A800F0BBFA06AB93E80700EF
:1007000003AB83E8070050460A9900F09CFB8DE894
:100710000700A0F500501F3800900398002D0ADD57
:1007200042F21F014A460844002303A90390684689
:1007300000F005FE09E0A0F500504A461F380023EE
:1007400003A90390684600F00FFE8DE8070000043F
:10075000000C03D04FF0FF30410800E01046B8F124
:10076000000F03D00022009215461EE0751E05D42E
:1007700000F0F8F9303262556D1EF9D5B34601220A
:10078000084302D000227F1C04E02078302801D1E9
:1007900000227F1E002A099784D01DE0112D07DA60
:1007A00000F0E0F9303262556D1C50EA0102F5D1DB
:1007B000084302D00098C8B10EE00021681E05E091
:1007C000235C625C63542254401E491C8142F7DB67
:1007D000AB46A81B401E0990002004F80B000B98A4
:1007E000099AC0F80880C0E9002B7AE711264FF07B
:1007F000000857E72DE9F04F88460446D21D22F045
:10080000070191B0D1E90001CDE90A0103F01DF91A
:1008100002460B98C00F01D02D2007E02068810709
:1008200001D52B2002E0202101EAC000032A099013
:1008300001D0072A05DB03464146204600F0D8F9DF
:100840000BE12078800601D5E06900E00620B8F1D0
:10085000650F814606D0B8F1660F18D0B8F1670F62
:1008600070D131E00020B9F1110F009001DB1123AC
:1008700001E009F101030AAA01A90CA8FFF7E2FEB1
:10088000DDE90C70002609F10105834647E00120EF
:100890004B4600904FF000470AAA01A90CA8FFF7A9
:1008A000D1FEDDE90DB00C995D46002610B909F1C5
:1008B00001000D18B9EB050003D4C0F1FF3609F1B2
:1008C0000105A5EB09002BE0B9F1010F01DA4FF0AA
:1008D00001090020B9F1110F0090484601DD1123F4
:1008E00000E003460AAA01A90CA8FFF7ABFEDDE968
:1008F0000C704D4600268346207800070AD4AB458D
:1009000000DA5D4601A8012D04DD411911F8011C32
:10091000302907D04F4502DA17F1040F04DA01201D
:1009200082460FE06D1EEEE7002F02DCED1B3E4419
:1009300003E0781CA84200DD7D1CB81B00F1010A11
:100940004FF000472078000703D4AA4501DB4FF0A1
:10095000FF3A0021B7F1004F0DF143088DF8431025
:1009600024D002202B23002F01DA7F422D230A21DD
:10097000021EA0F1010000DC5FB197FBF1FC97FBC8
:10098000F1F201FB1C7C17460CF1300C08F801CD8C
:10099000EEE7A8F1010003702188090501D5452182
:1009A00000E06521A0F1010800F8011C09980FA9D9
:1009B000A1EB0807FF1D00B10120411901EBEA700E
:1009C000A1693844081A401EA0612078C00602D4EC
:1009D0002046AFF30080099828B1D4E9012190475F
:1009E000206A401C20622078C00622D52046AFF342
:1009F00000801EE0002E04DBB34502DD01A8805D0F
:100A000000E03020D4E901219047206A401C206298
:100A1000761CAAF101005FEA000A0AD100F09AF8F8
:100A2000C0680168405CD4E901219047206A401CFD
:100A30002062281EA5F10105DCDC07E0D4E90121D4
:100A400018F8010B9047206A401C2062381EA7F15D
:100A50000107F3DC2046AFF30080032011B041E62C
:100A600001694A1C02610878704700B58FB0CDE972
:100A700001310021059105497944CDE90310114662
:100A80006846FFF753FC0FB000BD0000E5FFFFFF15
:100A90000A6802F8010B0A607047D1E900239A4204
:100AA00002D2531C0B601070704710B5203AC0F092
:100AB0000B80B1E81850203AA0E81850B1E818505F
:100AC000A0E81850BFF4F5AF5FEA027C24BFB1E89C
:100AD0001850A0E8185044BF18C918C0BDE810400D
:100AE0005FEA827C24BF51F8043B40F8043B08BF16
:100AF0007047D20728BF31F8023B48BF11F8012BDD
:100B000028BF20F8023B48BF00F8012B70474FF088
:100B100000020429C0F0128010F0030C3FF405AD70
:100B2000CCF1040CBCF1020F18BF00F8012BA8BFD8
:100B300020F8022BA1EB0C01FFF7F7BC5FEAC17CA8
:100B400024BF00F8012B00F8012B48BF00F8012B4F
:100B50007047000000487047702F00200048704721
:100B6000502F002030B5B0F10A024FEA900E71F11B
:100B700000034EEA817EB0EB0E0061EB91014FEA7B
:100B8000101E4EEA017E10EB0E0041EB11114FEAF0
:100B9000102E4EEA016E10EB0E0041EB11214FEAD0
:100BA000104E4EEA014E10EB0E0041EB1141401881
:100BB00041F100014FEAD00040EA41704FEAD10113
:100BC00010EB80054FEA810444EA907444EB010481
:100BD0006D1944EB0404521BA3414FF0000348BFBE
:100BE0000A3200D530BD401C41F1000130BD00008B
:100BF0002DE9F0411F46044603260168072A01F447
:100C0000006004DB08B116A505E016A503E008B1F5
:100C100015A500E015A521F010002060A069C01EF8
:100C2000A0610FB1401EA0612046AFF300804FB11C
:100C3000D4E9012138469047206A401C2062C01C3C
:100C4000206206E0206AFAE7D4E9012115F8010BD9
:100C50009047761EF8D22046AFF30080BDE8F081C1
:100C60004E414E006E616E00494E4600696E660050
:100C70002DE9F047814616468AB0354878440DC8BC
:100C80008DE80D0032487844801C03AC0DC884E820
:100C90000D0041F69B300844372190FBF1F290FBA8
:100CA000F1F5A5F1800501FB12041B3C02D564425D
:100CB000012000E00020DFF898A080460027FA44D9
:100CC000AAF1BE0A0EE0E0070AD03246684607EBFA
:100CD000470101230AEB810100F046FB8DE8070084
:100CE00064107F1C002CEED1194F7F44AE3F19E0F9
:100CF000E80715D007EB04100DF1180A90E80E0074
:100D00008AE80E00C068F04201D198190890324676
:100D1000012306A903A800F027FB03AB83E8070023
:100D20006D10641C002DE3D14FF00103324669467B
:100D3000B8F1000F03A802D000F001FB01E000F0C1
:100D400013FBC9E90001C9F808200AB0BDE8F08723
:100D5000B068000000487047502F00207546FFF72C
:100D6000F9FFAE4605006946534620F00700854668
:100D700018B020B5FFF772FABDE820404FF000062A
:100D80004FF000074FF000084FF0000B21F0070173
:100D9000AC46ACE8C009ACE8C009ACE8C009ACE8B6
:100DA000C0098D46704710B50446AFF30080204659
:100DB000BDE81040FFF7F1B94FF0013C50F8042BAB
:100DC00051F8043B9A4221D1A2EB0C03934313EA5E
:100DD000CC1317D150F8042B51F8043B9A4215D18B
:100DE000A2EB0C03934313EACC130BD150F8042B62
:100DF00051F8043B9A4209D1A2EB0C03934313EA46
:100E0000CC13DBD04FF00000704700BFD01A01BAFE
:100E1000B1FA81F101F0180122FA01F0CB40C1F1E1
:100E20002001DBB2C0B2C01A2CFA01F3D11A9143EF
:100E300011EAC311E6D1704701491820ABBEFEE7A5
:100E40002600020070475FEA400C08BF91F0000FD7
:100E50004FEA8C234FEAC12243EA51514FEA1C501A
:100E600018BF00F5F0404FEA300018BF41F00041D4
:100E70005FEA6C5C00F02980BCF1FF3F08BF40F0E6
:100E800080407047130C06BF12044FF0100C4FF057
:100E9000000C130E04BF12020CF1080C130F04BF58
:100EA00012010CF1040C930F04BF92000CF1020C20
:100EB000D30F04BF52000CF1010C11464FF0000299
:100EC000A0F11F00A0EB0C00704711F0004F08BF0D
:100ED000704731F000413FF4D5AF0B0C06BF090459
:100EE0004FF0100C4FF0000C0B0E04BF09020CF178
:100EF000080C0B0F04BF09010CF1040C8B0F04BF8D
:100F000089000CF1020CCB0F04BF49000CF1010C5D
:100F1000CCF12003A0EB0C0022FA03F302FA0CF24E
:100F200041EA030100F10100704720F07F4C80EAA4
:100F3000030023F07F47ACEB070303F57C5300F07D
:100F4000004003F1FF032DE980494FEA154B09B436
:100F50004FEA144325EA0B4E24EA03480FF2042615
:100F600006EB132749083E785FEA320203FB066767
:100F7000C7F5000707FB06F64FEA54374FEAD64697
:100F800006F1020607FB066CCCF1005C4FEA1C4739
:100F90002CEA074C07FB06F40CFB06F504EB1546A0
:100FA0004FEA961634BF00204FF000404FEAD13789
:100FB00006FB07FC4FEA1C4C0CFB0BF7D21B03FB98
:100FC0000CF761EB07010CFB0EF7B0EB074072EB7F
:100FD00017420CFB08F734BFA2EB0742B2EB074203
:100FE00061EB17414FEA0C444FEA910706FB07FCFF
:100FF0004FEA1C4C0CFB0BF7B0EBC74072EB5732BF
:1010000003FB0CF734BFA2EBC742B2EBC74261EB64
:1010100057310CFB0EF7B0EBC70072EB57720CFBAD
:1010200008F734BFA2EBC702B2EBC70261EB5771FE
:10103000039F4FEA816141EA921104EBCC044FEA2D
:10104000D1374FEA826206FB07FC42EA90124FEA70
:1010500080604FEA1C4C0CFB0BF7D21B03FB0CF718
:1010600061EB07010CFB0EF7B0EB074072EB174288
:101070000CFB08F734BFA2EB0742B2EB074261EB6F
:1010800017414FEA8C554FEA910704EB9C2406FB6D
:1010900007FC4FEA1C4C0CFB0BF7B0EBC74072EBA4
:1010A000573203FB0CF734BFA2EBC742B2EBC74287
:1010B00061EB57310CFB0EF7B0EBC70072EB5772C8
:1010C0000CFB08F734BFA2EBC702B2EBC70261EB1F
:1010D000577115EB4C254FEA816141EA92114FEAB5
:1010E00082624FEAD13742EA901206FB07FC44F1D4
:1010F00000044FEA80604FEA1C4C0CFB0BF7D21B3C
:1011000003FB0CF761EB07010CFB0EF7B0EB07409C
:1011100072EB17420CFB08F734BFA2EB0742B2EBAD
:10112000074261EB174115EB1C154FEA813141EA8B
:1011300092414FEA823242EA90424FEA80304FEACF
:101140000C7644F1000448EA03434EEA0B484FF0A2
:10115000000EB2EB080C71EB030724BF6246394660
:101160004EEB0E0E4FF0000B0018524149414BEB75
:101170000B0BB2EB080C71EB03077BF1000B24BFE8
:10118000624639464EEB0E0E4FF0000B00185241EE
:1011900049414BEB0B0BB2EB080C71EB03077BF1F6
:1011A000000B24BF624639464EEB0E0E51EA020791
:1011B00018BF46F0010616EB0E7655F1000254F109
:1011C000000103D5BDE88901BDE80088BDE88901BB
:1011D000BDE80048B619524141EB0101A3F10103FA
:1011E000704780807F7E7D7C7B7A79787776767594
:1011F0007473727171706F6E6E6D6C6C6B6A6A690C
:101200006868676666656464636362616160605FA5
:101210005F5E5E5D5D5C5C5B5B5A5A59595858571E
:101220005756565555555454535352525251515086
:1012300050504F4F4F4E4E4D4D4D4C4C4C4B4B4BD9
:101240004A4A4A494949484848474747474646461F
:10125000454545444444444343434342424242415A
:101260004141002B9C4630D477002BD01CB54FEA6F
:10127000370703B44FF010004FF01001BAF1000F20
:1012800006D0BCF1000FDCBF40F0080040F00801C0
:101290004FF000000FBCBDE810400BF1010BBBF19B
:1012A000010F08BF5FEA170722BF12F1010211F117
:1012B00001014FF0004143F1000300F0004043EA18
:1012C00000007047F9D35708D0E746EA064613F105
:1012D000400F4FEA16461FDD13F1200FDFBF164304
:1012E0000A46002120335B42BED0C3F1200746EA04
:1012F000064602FA07F74FEA164646EA0706C3F122
:10130000200722FA03F201FA07F721FA03F14FF05E
:10131000000342EA0702A7E746EA020646EA064653
:101320004FEA164646EA0106BCBF46EA0646360CB8
:101330004FF000034FF000024FF0000194E72DE959
:10134000804C9A46934670B491E8380007C831EA59
:10135000400C48BF34EA430C03D5FFF7E6FDFFF726
:1013600080FFF0BCBDE8008C2DE9804C9A46934686
:1013700070B491E8380007C810F0804F08BF13F030
:10138000804F03D100F005F8FFF76BFFF0BCBDE81C
:10139000008C20F07F4780EA030023F07F4C07EBAE
:1013A0000C03A3F57C5300F00040A3F1FE0392F080
:1013B000000F00F0B38095F0000F00F077802DE96A
:1013C00001494FEA11404FEA144621EA004800FB68
:1013D00006FC24EA064708FB06F607FB08F800FBB4
:1013E00007F718EB06484CEB164C4FEA124B18EB7C
:1013F00007484FEA15464CEB174022EA0B4E0BFB11
:1014000006FC25EA06470EFB06F607FB0EFE0BFB65
:1014100007F71EEB064E4CEB164C4FF000061EEB8A
:10142000074E4CEB174B18EB0B0840F1000018EB84
:101430000E0B58EB000840F100008F1A4FF000012E
:101440003CBFC943661B14BFB5EB040C00213CBF75
:10145000C943F61B4FEA17444EEA8E0E27EA0445AD
:101460004FEA1C4704FB07622CEA074C05FB07F711
:101470000CFB05F604FB0CFC16EB074642EB17428F
:1014800016EB0C4642EB1C421BEB060658EB020225
:10149000414146EA9E0601D5BDE80189B61952418F
:1014A00041EB0101A3F10103BDE801894FEA1445B5
:1014B0004FEA114724EA054621EA074C05FB07F4E9
:1014C00006FB07F70CFB06F105FB0CFC11EB0741D3
:1014D00044EB17444FEA124711EB0C4144EB1C4418
:1014E00022EA074C05FB07F206FB07F70CFB06F6A2
:1014F00005FB0CFC16EB074642EB174216EB0C46BD
:1015000042EB1C456A1854F1000148BF7047B619F8
:10151000524141EB0101A3F10103704795F0000F27
:1015200037D04FEA11424FEA144721EA024624EA33
:10153000074C02FB07F106FB07F70CFB06F402FB66
:101540000CFC14EB074441EB17414FEA154714EB31
:101550000C4441EB1C4125EA074C02FB07F506FB56
:1015600007F70CFB06F602FB0CFC16EB074645EBF7
:10157000174516EB0C4645EB1C42121951F10001C0
:1015800048BF7047B619524141EB0101A3F1010375
:1015900070474FEA14454FEA114724EA054621EA0D
:1015A000074C05FB07F106FB07F70CFB06F24FF0B3
:1015B000000605FB0CFC12EB074241EB174112EB56
:1015C0000C4251EB1C4148BF7047921841EB01019E
:1015D000A3F101037047502080F31188BFF34F8FB0
:1015E000BFF36F8FFEE7FEE7704772B6FEE710B5F8
:1015F00090F821100022022905D00421816380F88F
:101600002020012010BD01680B6823F00E030B6041
:1016100001680B6823F001030B6090F84030C46B45
:10162000012101FA03F3636080F8211080F8202083
:10163000104610BD10B590F821100024022903D0E7
:101640000421816301243DE001680A6822F00E0252
:101650000A6001680A6822F001020A601A4A0168F9
:10166000914201D1012121E0174A1432914201D166
:1016700010211BE0144A2832914201D1891515E04E
:10168000114A3C32914201D189140FE00E4A503286
:10169000914202D14FF4803108E00B4A643291420A
:1016A00002D14FF4801101E04FF08071064A083AF0
:1016B0005160012180F82110002180F82010416B39
:1016C00001B18847204610BD080002402DE9F84FBF
:1016D000DFF8B8910024A9F1040B23460F2709F184
:1016E000040AABF1040EC9E00125A5402A40AA4234
:1016F0007DD1674ED1F804C0ACEB0608B44532D0BA
:1017000014DCBCF1030F3AD009DCBCF1000F2AD085
:10171000BCF1010F1CD0BCF1020F31D11DE0BCF1B6
:10172000110F17D0BCF1120F2AD119E0B8F5881F9C
:1017300019D006DCB8F5803F15D0B8F5801F1FD151
:1017400011E0B8F5001F0ED0B8F5041F18D10AE05B
:10175000CB6815E0CB681B1D12E0CB6808330FE0A7
:10176000CB680C330CE08B682BB1012B4FF00803D6
:1017700003D0456104E0042302E0056100E000239A
:10178000FF2A01D8064601E000F104064FEA84056D
:1017900001D9A5F12005D6F8008007FA05FC28EA52
:1017A0000C0803FA05F548EA0508C6F800804D68FC
:1017B000ED0062D5374DAE6946F00106AE61AD6908
:1017C00024F0030605F001050095334D06EB050CEA
:1017D000DCF80850A607360F07FA06F825EA0805D0
:1017E000DFF8B880404503D14FF0000817E044E02F
:1017F000DFF8AC80404502D14FF001080FE0DFF880
:10180000A480404502D14FF0020808E0DFF898803C
:10181000404502D14FF0030801E04FF0040808FAF8
:1018200006F848EA0508CCF808804D68D9F8006049
:10183000ED024D4601D5164300E096432E604D68FB
:10184000DAF80060AD02554601D5164300E0964334
:101850002E604D68DBF80060AD035D4601D5164390
:1018600000E096432E604D68DEF80060ED0375469B
:1018700001D5164300E096432E60641C0D682A468D
:10188000E5407FF431AFBDE8F88F00000804014067
:10189000000011100010024000000140000801404B
:1018A000000C01400010014000140140C26821EA10
:1018B00002030A4043EA0241016170470AB1016133
:1018C00070470904FBE7000001488068704700008A
:1018D000B800002002488168027811448160704796
:1018E000B8000020074810B5016841F01001016000
:1018F000032000F0A7F80F2000F006F800F050F8E1
:10190000002010BD0020024030B505461F4887B0BA
:10191000C16941F00401C161C06906A900F0040079
:10192000009001A800F004FA0498B0B100F020FA89
:1019300040001749174AB0FBF1F11748491E0260F1
:10194000416040F2E7320021C0E9032181608161FA
:1019500000F09CFC040003D015E000F009FAE8E771
:101960000D4800F00BFD04000DD11E2000F03CF8E6
:10197000102D07D2002229461E2000F043F8074808
:10198000056000E0012407B0204630BD0010024091
:1019900040420F0000080040AC010020BC000020C5
:1019A0000F4808B5816941F001018161816901F049
:1019B00001010091C16941F08051C161C0690022FB
:1019C00000F0805000900F21901E00F01BF8054899
:1019D000416821F0E06141F00071416008BD000004
:1019E0000010024000000140002809DB00F01F0247
:1019F000012191404009800000F1E020C0F8001171
:101A000070470000F0B40E4B1B680C46C3F3022372
:101A1000C3F10705042D00D90425191D072901D29A
:101A2000002300E0DB1E012606FA05F1491E2140D5
:101A300099409E40761E16403143F0BC02F039B802
:101A40000CED00E0064900F0070208684FF6FF03BE
:101A5000184040EA0220034A104308607047000023
:101A60000CED00E00000FA05014901200862704712
:101A700000000E4210B501460020234C012922D05F
:101A8000022939D010291DD161682268D20119D5E7
:101A90001E48C1F38342C903805C0AD561681B4AB2
:101AA000C1F34041921E515C194AB2FBF1F1484327
:101AB00001E0184948436168490203D4400003210A
:101AC000B0FBF1F010BD226AC2F30121012903D15C
:101AD000920701D5C80310BD022905D1626A920799
:101AE00002D549F6404010BD0329FCD12168890385
:101AF000F9D54FF2244010BD00F04AF96168C1F3F6
:101B00008131491C4900DBE700100240746E000877
:101B100000127A0000093D002DE9F84305460078DF
:101B2000354CC00754D0E0690026C00008D4E069F5
:101B300040F08050E061E069012600F080500090A4
:101B40002E480168C90512D40168804641F48071AD
:101B50000160FFF7B9FE074605E000BFFFF7B4FEDE
:101B6000C01B642823D8D8F80000C005F6D5206A29
:101B700010F4407021D0A98801F4407181421CD03A
:101B8000206A1F49012220F440700A6000220A6086
:101B90002062C00711D0FFF797FE074641F2883850
:101BA00008E000BFFFF790FEC11B414502D90320AA
:101BB000BDE8F883206A8007F4D5206A696820F4BC
:101BC0004070084320621EB1E06920F08050E0615F
:101BD0002878800705D56068A96820F4404008434C
:101BE00060602878C00605D56068E96820F4800048
:101BF000084360600020DBE70010024000700040F6
:101C0000400442422DE9F0470F46050061D0434EA3
:101C1000306800F00700B84209D2306820F00700B1
:101C200038433060306800F00700B84251D128686E
:101C30003B4C810712D5400703D5606840F4E06053
:101C400060602878000703D5606840F460506060E9
:101C50006068A96820F0F000084360602878C00739
:101C600028D06868012810D02168022810D0890780
:101C700000292EDA616821F0030101436160FFF75A
:101C800023FE804641F288390DE021688903EFE7A1
:101C90008901EDE7FFF718FEA0EB0801494502D9DD
:101CA0000320BDE8F0876068696800F00C00B0EBC5
:101CB000810FEFD1306800F00700B8420BD93068CF
:101CC00020F0070038433060306800F00700B84269
:101CD00001D00120E5E72878400705D56068E9686C
:101CE00020F4E060084360602878000706D560684B
:101CF000296920F4605040EAC100606000F058F8A3
:101D00006168084AC1F30311515CC8400649086084
:101D100006480068FFF7F8FD0020C2E700200240F7
:101D200000100240486E0008B4000020BC000020F3
:101D30000F2202600C4A536803F0030343605368A8
:101D400003F0F0038360536803F4E063C3605268F8
:101D50004FF4E06303EAD20202610448006800F035
:101D60000700086070470000001002400020024099
:101D70000448054900684968044AC1F30221515CDE
:101D8000C8407047B400002000100240586E0008A0
:101D90000448054900684968044AC1F3C221515CFE
:101DA000C8407047B400002000100240586E000880
:101DB0000E4A51680E4801F00C03042B11D0082B79
:101DC0000FD10C48C1F38343C903C05C0AD55168E5
:101DD000084AC1F34041921E515C054A5043B0FB92
:101DE000F1F070470449484370470000001002407A
:101DF00000127A00626E000800093D002DE9F84FDC
:101E0000040070D02078C04DC00749D06868C0F386
:101E10008100012807D06868C0F38100022809D139
:101E20006868C00306D52868800339D56068002833
:101E3000E7D035E06068B0F5803F0BD010B1B0F569
:101E4000A02F11D0286820F480302860286820F462
:101E5000802002E0286840F480302860606890B1FB
:101E6000FFF732FD06460AE0286840F4802028602B
:101E7000F0E700BFFFF728FD801B642873D82868AF
:101E80008003F7D50CE0FFF71FFD064605E000BF15
:101E9000FFF71AFD801B6428F0D828688003F7D468
:101EA00020789A4E80074FF001094FF0000839D58D
:101EB000686810F00C0F07D06868C0F38100022832
:101EC00009D16868C00306D42868800714D5206942
:101ED000012808D110E02069B0B1C6F80090FFF7E2
:101EE000F3FC074605E00AE1FFF7EEFCC01B022801
:101EF000C4D828688007F7D52868616920F0F80001
:101F000040EAC10028600DE0C6F80080FFF7DCFC65
:101F1000074604E0FFF7D8FCC01B022823D8286836
:101F20008007F7D4207800072CD57948A169D9B16A
:101F3000C0F80090FFF7C8FC074604E0FFF7C4FCB8
:101F4000C01B02280FD8686A8007F7D571484FF484
:101F5000FA510068B0FBF1F0009000BF0098411EFC
:101F60000091FAD20EE080E0C0F80080FFF7ACFCF0
:101F7000074604E0FFF7A8FCC01B022875D8686A72
:101F80008007F7D42078400760D5E8690027C000B3
:101F900008D4E86940F08050E861E869012700F062
:101FA000805000905C480168C90513D401688346DD
:101FB00041F480710160FFF787FC824606E000BFB4
:101FC000FFF782FCA0EB0A0064284ED8DBF8000083
:101FD000C005F5D5E06801280AD008B1052813D05E
:101FE000286A20F001002862286A20F0040002E03C
:101FF000286A40F001002862E06841F2883B98B10D
:10200000FFF762FC82460BE0286A40F00400286279
:10201000EEE700BFFFF758FCA0EB0A0159455AD87C
:10202000286A8007F6D50CE0FFF74EFC824605E0F3
:10203000FFF74AFCA0EB0A0159454CD8286A8007F3
:10204000F6D41FB1E86920F08050E861E06988B3F8
:102050006968C1F38101022944D00228C6F8608072
:1020600004D0FFF731FC044638E034E0FFF72CFCE5
:10207000074604E0FFF728FCC01B02282BD828687D
:102080008001F7D4206AB0F5803F05D16868A16867
:1020900020F4003008436860D4E908010843696807
:1020A00021F4741108436860C6F86090FFF70CFCD7
:1020B000044606E025E000BFFFF706FC001B0228EF
:1020C00009D828688001F7D51BE000BFFFF7FCFBAB
:1020D000001B022802D90320BDE8F88F2868800180
:1020E000F4D40EE00128F7D06868226A00F4803149
:1020F000914204D1616A00F47010884201D001203D
:10210000EAE70020E8E70000001002400000424239
:1021100080044242B40000200070004070B504000A
:1021200003D0607C002610B105E0012070BD26744C
:10213000204600F03DF802206074204600F052F87E
:10214000042550BB204601F0F1F830BB20684168FF
:1021500021F007014160A06820B11448016821F016
:10216000010101601148001F0168A26821F460713B
:10217000114301606068411C04D10120FFF77AFC23
:1021800058B1401E2268C0F303419160216880B2BB
:10219000C860204601F0E4F808B16574C5E7E6734D
:1021A00001206073A0736074002070BD306C00402B
:1021B00008B50068084988420DD1FFF755FC07486B
:1021C000C16941F00061C161C069054900F000606A
:1021D00000900120086008BD002800400010024067
:1021E0003C04424270B504000AD02068416821F0E6
:1021F00008014160FFF768FB05464FF47A7608E076
:10220000012070BDFFF760FB401BB04201D90320E5
:1022100070BD206840680007F4D5002070BD70478D
:102220007047000070B590F83C20012A26D00124A8
:1022300080F83C40022280F83D2003685A689D687F
:1022400022F070060A6832435A600D4B02689A42C7
:1022500008D0B2F1804F05D00A4B9A4202D00A4B07
:102260009A4204D1496825F080031943916080F8AF
:102270003D40002180F83C10084670BD022070BD32
:10228000002C0140000400400008004010B504008C
:1022900003D094F83D0010B107E0012010BD0020EC
:1022A00084F83C00204600F01FF8022084F83D002E
:1022B000211D206801F064FA012084F8460084F8AA
:1022C0003E0084F83F0084F8400084F8410084F820
:1022D000420084F8430084F8440084F8450084F800
:1022E0003D00002010BD000008B500680D4988427F
:1022F00017D10D48C16941F00201C161C0690022D6
:1023000000F00200009005211D20FFF77BFB1D203F
:10231000FFF76AFB00220421BDE808401D20FFF7FB
:1023200071BB08BD000400400010024090F83D1051
:10233000012901D001207047022180F83D1000687A
:102340000B49884208D0B0F1804F05D00949884236
:1023500002D00949884204D1816801F007010629A9
:1023600003D0016841F001010160002070470000C6
:10237000002C0140000400400008004090F83D108F
:10238000012901D001207047022180F83D10016829
:10239000CA6842F00102CA6000680B49884208D04E
:1023A000B0F1804F05D00949884202D008498842DF
:1023B00004D1816801F00701062903D0016841F0CA
:1023C0000101016000207047002C01400004004022
:1023D0000008004070B5044690F83C000025012834
:1023E00017D0012684F83C60022084F83D00206864
:1023F000826822F0770222F47F42826008685028C7
:1024000038D00DDC20284FD005DC90B3102811D136
:102410004AE0022070BD302846D040280AD13BE077
:1024200060282FD070280DD0B0F5805F03D0B0F5B4
:10243000005F12D0012584F83D60002084F83C0044
:10244000284670BDCB68D1E90121206801F0D4F99C
:102450002068816841F0770109E0CB68D1E901216A
:10246000206801F0C9F92068816841F480418160E9
:10247000E1E719E0CA684968206801F0CFF9502106
:10248000206806E0CA684968206801F0D8F9602130
:10249000206801F0BBF9CEE7CA684968206801F0FE
:1024A000BDF940212068F4E7226801461046F0E7B4
:1024B00070472DE9F04104460068C66805694FF091
:1024C0000007A90713D5B10711D5F91E0161012035
:1024D0002077206880698007204602D0FFF7E8FF58
:1024E00004E000F07EF8204600F07CF827776807CB
:1024F00016D5700714D521686FF00400086102201A
:1025000020772068806910F4407F204602D0FFF7D2
:10251000CFFF04E000F065F8204600F063F827776D
:10252000280715D5300713D521686FF0080008611A
:10253000042020772068C0698007204602D0FFF77A
:10254000B7FF04E000F04DF8204600F04BF8277785
:10255000E80616D5F00614D521686FF01000086162
:10256000082020772068C06910F4407F204602D000
:10257000FFF79EFF04E000F034F8204600F032F848
:102580002777E80708D0F00706D021686FF0010030
:102590000861204600F028F8280608D5300606D540
:1025A00021686FF0800008612046FFF738FE68065A
:1025B00008D5700606D521686FF0400008612046F6
:1025C00000F022F8A8060AD5B00608D521686FF0F9
:1025D000200008612046BDE8F041FFF721BEBDE8BC
:1025E000F08170477047000010B504460068054947
:1025F000884201D1FFF76EF92046BDE8104001F096
:1026000011B8000000080040704770477047000094
:10261000F8B5016804460868CA684B6910F00F0FE6
:102620004FF0000559D003F0010602F490773743CC
:1026300065D0C10705D0D10503D5616C41F001011A
:102640006164410705D5D90703D0616C41F00201EF
:102650006164810705D5D90703D0616C41F004019D
:102660006164010707D502F02001314303D0616C9A
:1026700041F008016164616C00293AD0800604D5FC
:10268000900602D5204601F01BF920684069616C74
:10269000C0F38010090700D460B3204601F0E9F8C8
:1026A00020684069400621D52068143050E8001F9A
:1026B00021F0400140E80012002AF5D1E06BA8B1FA
:1026C0006D494163E06BFEF7B5FF002811D0E06B68
:1026D000416B01B0BDE8F040084783060FD5930673
:1026E0000DD52046BDE8F84001F0EAB82046FFF7D6
:1026F0008DFFF8BD2046FFF789FF6564F8BD266BA6
:102700002023012E7CD1C6067AD5D60678D5086856
:102710004868009048694FF00206400640D5E16BDA
:10272000086840680004000CE8D0A28D8242E5D918
:10273000E085886920282DD020680C3050E8001FE3
:1027400021F4807140E80012002AF5D1206814308D
:1027500050E8001F21F0010140E80012002AF5D1E5
:102760002068143050E8001F21F0400140E80012BA
:10277000002AF5D184F84230256320680C3050E8F7
:10278000001F21F0100140E80012002AF5D1E06B93
:10279000FEF72DFF6663A08DE18D401A81B22AE01D
:1027A000A08DE18D401A81B2E08D0028A6D00029CD
:1027B000A4D022680C3252E8000F20F4907042E856
:1027C0000007002FF5D12068143050E8002F22F0C8
:1027D000010240E80027002FF5D184F8423025633C
:1027E00020680C3050E8002F22F0100240E800234F
:1027F000002BF5D166632046FFF707FFF8BDFFE722
:1028000005062BD5150629D594F841002128F5D1C8
:10281000A068B0F5805F01D12069B0B1206A411C89
:102820002162216800784860E08C401E0004000CA2
:10283000E084E3D12068C16821F08001C160206894
:10284000C16841F04001C160D8E7206A0088C0F348
:1028500008004860206A801C2062E5E74006CDD56C
:102860005006CBD5CA68204622F04002CA6084F8E0
:10287000413000F076F8C1E76338000870B5040015
:1028800004D094F84100002510B106E0012070BD8D
:1028900084F84050204600F023F8242084F84100BA
:1028A0002068C16821F40051C160204601F06AF837
:1028B0002068016921F4904101612068416921F09B
:1028C0002A0141612068C16841F40051C16065641A
:1028D000202084F8410084F842006563002070BD28
:1028E00030B585B0002400940194029403940068EC
:1028F000184988422BD11848C16941F40031C1619F
:10290000C16901F400310491816941F004018161E0
:102910008069124D00F00400049004200090022011
:1029200001900320039069462846FEF7CFFE082059
:10293000CDE90004694628460294FEF7C7FE00224E
:1029400005212620FFF75EF82620FFF74DF805B099
:1029500030BD00000044004000100240000801406B
:1029600070477047FEE700002DE9FF411D4E1E4CE9
:10297000B5692168284604F025F91C491C4F884296
:1029800002DD394604F01EF91A49884202D9394657
:1029900003F086FD0146606803F082FDC4E9005043
:1029A0000090306A019002F015FEDDE90001C4E9F3
:1029B000020102F02FFE104C00231A4669462068DF
:1029C00001F07EFE00280BD000231A4602A92068E1
:1029D00001F018FE00231A466946206801F070FED7
:1029E000BDE8FF81F4010020040000200000344312
:1029F0000000B443000034C3200000202DE9FE4352
:102A0000002480462746264625464FF4C87902AA68
:102A100001A9684600F0A3F9BDF90000641C074451
:102A2000BDF90400A4B20644BDF908004C450544B4
:102A3000EDD3484697FBF0F1A8F80C1096FBF9F19E
:102A400095FBF9F0A8F80E10A8F810000020BDE8DA
:102A5000FE8310B501F078FC80216B2001F000FDB1
:102A6000642001F0EDFA032408E0752001F0C4FCB5
:102A7000682806D034B3642001F0E2FA641EE4B2A0
:102A8000F3D200216B2001F0EBFC0A2001F0D8FA10
:102A90000021192001F0E4FC03211A2001F0E0FCE0
:102AA00008211B2001F0DCFC08211C2001F0D8FCCF
:102AB0000021382001F0D4FC00216A2001F0D0FC74
:102AC000002010BD012010BD2DE9FC5F0446FEF77B
:102AD000FBFE0546206A281A03F06CFE874903F0C6
:102AE00053FD06462562B0F5000F7DDB8448864223
:102AF00000DD844E04F10A02911EA01D00F014F9BD
:102B0000221DA11C204600F02AF9B4F9060003F0AA
:102B100039FE6FF00C05294604F0FDF88146B4F942
:102B2000080003F02FFE294604F0F5F88046B4F9BA
:102B30000A0003F027FE294604F0EDF80746014697
:102B4000404601F091F8704903F07CFE6F4D394624
:102B50002860084603F076FE07464146084603F023
:102B600071FE394603F09CFC02F038FB01464846F2
:102B700001F07AF8664903F065FE6860B4F9000078
:102B8000B4F90C10401A03F0FDFD624F394603F012
:102B9000FBFC8146B4F90200B4F90E10401A03F0B0
:102BA000F1FD394603F0F0FC8246B4F90400B4F9B3
:102BB0001010401A03F0E6FD394603F0E5FC564FCD
:102BC00080463946A06903F03DFE009039466069B1
:102BD00003F038FE0190009801F074F9074601985F
:102BE00002F09AFB394600E086E003F02BFE4146F6
:102BF00003F028FE0746009802F02CFA834601985D
:102C000002F08AFB594603F01DFE514603F01AFEFE
:102C1000494603F045FC394603F042FC314603F0D7
:102C200011FEA16903F03CFCA860009802F012FAC2
:102C3000414603F007FE0746009801F043F951466C
:102C400003F000FE394603F0BDFF314603F0FAFD04
:102C5000616903F025FC05F12006304F8246E860EB
:102C60003946306803F01CFC83463946F06803F0AF
:102C700017FC2B4F00903946584603F011FC0146D3
:102C8000584603F081FCDFF89C8081463946C8F83D
:102C90000000009803F004FC0146009803F074FC67
:102CA000C8F80C00A96807468846286803F08AFF20
:102CB000494603F0C7FD414603F0F2FBA0615146CF
:102CC000686803F07FFF394603F0BCFD514603F00E
:102CD000E7FB60614FF07E544946204603F072FFE7
:102CE000594603F0AFFD30603946204603F06AFFD5
:102CF000009903F0A7FDF060BDE8FC9F00007A4456
:102D0000CDCC4C3D0AD7233CE12E6542D4000020B7
:102D1000E12E65C20000834239FA8E3C0AD7233B7C
:102D20009A99993E202F00207CB506460020144633
:102D30000D4600900190062269463B2001F016FBEB
:102D400000280BD1BDF8000040BA3080BDF8020069
:102D500040BA2880BDF8040040BA20807CBD7CB514
:102D60000646002014460D46009001900622694652
:102D7000432001F0FBFA00280BD1BDF8000040BA57
:102D80003080BDF8020040BA2880BDF8040040BA87
:102D900020807CBD10B502F079FB044A0021044874
:102DA00001F0C2FC0349086010BD0000946D0008EA
:102DB0006B340008000000202DE9F04385B00024AA
:102DC00025480094019402940394816941F0100114
:102DD0008161816901F010010491816941F0200154
:102DE0008161816901F020010491816941F0040150
:102DF0008161816901F004010491816941F0080158
:102E000081618069DFF8548000F008004FF480751C
:102E10000490002229464046FEF750FDDFF840901E
:102E20004FF4F077002239464846FEF747FD0095FB
:102E3000022601250396CDE9015469464046FEF776
:102E400045FC00970396CDE9015469464846FEF7D4
:102E50003DFC05B0BDE8F0830010024000080140D1
:102E6000000C01400A4810B5084901604FF0FF31DD
:102E700041604FF480718160FFF750F9002803D062
:102E8000BDE81040FEF7B1BB10BD000000280040B7
:102E90000801002010B586B0002417480094019462
:102EA0000294039404941349059401604721C0E9F6
:102EB000011440F2E731C0E9031480218161FFF77A
:102EC000E5F908B1FEF791FB4FF480500090694698
:102ED0000948FFF77FFA08B1FEF787FB049404A9BD
:102EE00005480594FFF79EF9002801D0FEF77DFB09
:102EF00006B010BD000400401C0100200C4810B5B5
:102F00000A4901604FF4E1314160002181600C22E7
:102F1000C160C0E904128161C161FFF7AFFC002804
:102F200003D0BDE81040FEF760BB10BD0044004078
:102F300064010020FEE70000014800F0EBBA000049
:102F400038020020FEE770B500240021204600F082
:102F50006BF80025002000F00DF96D1CEDB2802DFE
:102F6000F8D3641CE4B2082CEFD370BD08B54FF45D
:102F7000FA7001F065F82A48816941F00801816121
:102F8000806900F008000090264801F085F8AE2026
:102F900000F0A4F8D52000F0A1F8802000F09EF801
:102FA000A82000F09BF83F2000F098F8D32000F014
:102FB00095F8002000F092F8402000F08FF8A12052
:102FC00000F08CF8C82000F089F8DA2000F086F8CC
:102FD000122000F083F8812000F080F8CF2000F06C
:102FE0007DF8D92000F07AF8F12000F077F8DB20A6
:102FF00000F074F8302000F071F8A42000F06EF8B2
:10300000A62000F06BF88D2000F068F8142000F086
:1030100065F8AF2000F062F8BDE80840FFF793BF05
:1030200000100240C400002010B50C4640F0B00073
:1030300000F054F8102040EA141000F04FF804F0AB
:103040000F00BDE8104000F049B800002DE9F04144
:103050000746CE004000083E801E15464FF0FF3860
:10306000F1B2C0B2FFF7E0FF1148002400EB0515F4
:103070002819A0F5805090F8000E00F07BF8641C31
:10308000E4B2082CF4D308EB4700F1B2C0B2FFF76A
:10309000CBFF00242819A0F5805090F8080E00F00E
:1030A00069F8641CE4B2082CF4D3BDE8F081000098
:1030B000846E00082DE9F04115460E4607460024AF
:1030C00006E03019C1B23846FFF7C0FF641CE4B215
:1030D0002A5D002AF5D1BDE8F081000010B5044654
:1030E000234801F080F87821214801F036F80120CA
:1030F00000F0B2FF01211E4800F082F9012000F02B
:10310000ABFF00211A4800F07BF9012000F0A4FF7A
:103110000021174801F021F8012000F09DFF012156
:10312000134800F06DF9012000F096FF00211048CF
:1031300000F066F9012000F08FFF21460C4801F0F5
:103140000CF8012000F088FF0121094800F058F92F
:10315000012000F081FF0021054800F051F9012015
:1031600000F07AFFBDE81040014801F05EB80000B1
:10317000C400002010B50446234801F034F878213B
:10318000214800F0EAFF012000F066FF01211E48FF
:1031900000F036F9012000F05FFF00211A4800F02E
:1031A0002FF9012000F058FF4021174800F0D5FF0B
:1031B000012000F051FF0121134800F021F9012006
:1031C00000F04AFF0021104800F01AF9012000F039
:1031D00043FF21460C4800F0C0FF012000F03CFFF7
:1031E0000121094800F00CF9012000F035FF002111
:1031F000054800F005F9012000F02EFFBDE8104061
:10320000014801F012B80000C400002070B50DF1B3
:10321000100C9CE8700080E83E0000214161C0E98C
:10322000061670BD00214161816170472DE9F041B2
:1032300004460E463B483C491546824201DA0546A3
:1032400002E08D4200DB0D463046E16903F0C6FA2C
:1032500004D20020C4E90506BDE8F08129463046C5
:1032600003F0F0FA8046616903F01AF9616803F02F
:10327000E9FA07463146206803F0E4FA394603F0DC
:103280000FF90746216903F0A9FA1CD220693946D3
:1032900080F0004003F0A2FA15D24046616903F0C5
:1032A000FFF86061E16803F099FB01D2E0686061BA
:1032B000E068616980F0004003F090FB03D2E068B1
:1032C00080F0004060613046A16903F07BFC294634
:1032D00003F05AF90146A661A06803F0B3FA074665
:1032E0006169606803F0AEFA05463146206803F074
:1032F000A9FA294603F0D4F8394603F0D1F8054677
:10330000216903F06BFB00D225692069294680F012
:10331000004003F063FB02D2206980F0004528469C
:103320009AE700006F12833ACDCC4C3D70B504464D
:10333000FEF7CAFA05464FF47A7606E0FEF7C4FABD
:10334000401BB04201D9032070BD20684068800650
:10335000F4D52068416841F010014160002070BD43
:1033600070B504460068416821F010014160FEF725
:10337000ABFA05464FF47A7607E000BFFEF7A4FAF1
:10338000401BB04201D9032070BD20684068800610
:10339000F4D5002070BD016000214160704741609C
:1033A0007047000070B50C460646134913488A4220
:1033B00001DA0A4602E0824200DD02461146306828
:1033C00003F040FA05462046716803F0FBFB044613
:1033D000294603F003FB00D22C4685F00040054649
:1033E000214603F0FBFA00D22C462146706803F018
:1033F00057F8706070BD00006F12833ACDCC4C3D21
:10340000828801B912040068026170471FB500216B
:103410000091019102910391818900910121029112
:1034200080686946FEF752F91FBD81688968808906
:10343000014201D001207047002070471FB50021D4
:1034400000910191029103918189009111210191D3
:103450000321039180686946FEF738F91FBD828910
:1034600001B91204806802617047012001F088F8F8
:10347000FBE7000030B51449144C002011F820205F
:103480000AB1202201E04FF4001201EB80035D78C5
:1034900015B142F0400201E042F480029D7815B17E
:1034A00042F0800201E042F40002DB7813B142F402
:1034B000807201E042F0807244F82020401CC0B2CB
:1034C0000828DBD330BD000074740008302F0020C2
:1034D0000D4910B50D4A884201DA084602E09042D3
:1034E00000DD104601460A4803F04EF803F02AF9C1
:1034F000401E06D0B0F5803F01D34FF6FF7080B27A
:1035000010BD0120FBE700000000A0410000964430
:10351000002474494068704738B5044616488169EC
:1035200041F008018161806900F008000090FFF718
:10353000A1FF12494FF0F0700860002525706570FA
:1035400065600F48FFF7C4FF2081A5724FF000406F
:10355000E060401E20610B4804600B4801684D622A
:1035600021890268D1622189C160FEF7DFFEBDE8D2
:10357000384000F08DB8000000100240100C0140EF
:103580000000A041040100201C010020C0E903123A
:103590007047000070B505461F4A21F00040002624
:1035A000904207DA1D494FF0F070086000F070F8A3
:1035B000AE7270BDB1F5000F01DA012100E000210B
:1035C0006970FFF785FF2989154C81420CD0EFF314
:1035D000108172B62268D0622268536A834200D991
:1035E000566281F310882881A87A0028E1D12168E9
:1035F000801E08611D2000F04FFA20684662206896
:10360000C16841F00101C1602068016841F0010119
:1036100001600120A87270BD0000A041100C0140A3
:103620001C01002010B500681549884218D11548C2
:103630000068002814D043781349002B134A4368CC
:103640000FD0C468A3420BDD037851F8231011603A
:103650000178C91D01F0070101704168491E4160F0
:1036600010BD0469A342FBDA037851F823101160FE
:103670000178491C01F0070101704168491CEEE71F
:103680000004004004010020302F0020100C0140F5
:103690000D490868C26822F00102C2600868026A27
:1036A00041F211131A4207D1026A9B101A4203D148
:1036B000026822F00102026009686FF001000861EF
:1036C0001D2000F0E9B900001C01002010B54FF0EA
:1036D000E020006902F0DEFC012803D0BDE81040C4
:1036E00002F09EB910BD70B594B028216846FCF771
:1036F0001AFF14210AA8FCF716FF002501240F95D4
:103700001195052012950090CDE9025410954FF4C3
:103710008030019002260494CDE907604FF4E01058
:1037200009906846FEF76AFB08B172B6FEE70F2003
:10373000CDE90A064FF48060CDE90C5002210AA8B9
:103740000E95FEF75FFA08B172B6FEE74FF480708F
:10375000CDE90F400FA8FEF7DFF9002801D072B6BF
:10376000FEE714B070BD70470148FEF7A2BE00002E
:103770001C0100200148FEF79CBE0000AC010020A7
:10378000F0B50268194B1A4C1A4D4FF08047984219
:1037900005D0B84203D0A04201D0A84203D122F004
:1037A00070064A683243984205D0B84203D0A0421E
:1037B00001D0A84203D122F44074CA6822434C6964
:1037C00022F08002224302608A68C2620A68826232
:1037D000984201D109690163012141610169C90769
:1037E00003D0016921F001010161F0BD002C01400D
:1037F000000400400008004010B5846842EA03223B
:1038000024F47F440A432243826010BD826822F080
:1038100070020A4342F007018160704710B5036AE5
:10382000046A24F001040462846924F0F00444EA88
:10383000021423F00A020A438461026210BD10B52B
:10384000036A046A24F010040462846923F0A0036C
:1038500024F4704444EA023243EA011182610162B5
:1038600010BD10B5406A0021C185C184FEF7CEFEAF
:1038700010BD01680C3151E8002F22F4907241E82C
:103880000023002BF5D10168143151E8002F22F0FC
:10389000010241E80023002BF5D1016B012909D178
:1038A00001680C3151E8002F22F0100241E800239A
:1038B000002BF5D1202180F84210002101637047D0
:1038C00008B590F84210222901D0022008BD826874
:1038D0004FF480539A4201D1016921B1816A9A4221
:1038E0001BD04AB10AE00268816A5268C2F308023A
:1038F0000A80816A891C08E0026972B10268526814
:1039000002F07F020A70816A491C8162C18D491EE2
:103910000904090CC18503D01BE002685268F1E775
:103920000168CA6822F02002CA600168CA6822F4ED
:103930008072CA6001684A6922F001024A6120214E
:1039400080F8421000214163026B012A03D0FFF787
:1039500007F8002008BD016301680C3151E8002F11
:1039600022F0100241E80023002BF5D101680A681B
:10397000D20602D50A6849680091818DFEF745FE9E
:10398000E7E7000070B5044600680169E26821F4C9
:103990004051114301612169A068084361690843EE
:1039A0002168CA6841F20C639A430243CA602068E6
:1039B0004169A26921F44071114341611E492068A7
:1039C000884202D1FEF7E4F901E0FEF7D1F900EBFD
:1039D000C00101EB0012606864218000B2FBF0F3CB
:1039E000B3FBF1F36FF018067343B2FBF0F5B2FBD3
:1039F000F0F605EB8305322303EB0515B5FBF1F576
:103A0000B6FBF1F605F0F00505EB0615B2FBF0F696
:103A1000B2FBF0F0B0FBF1F06FF01802504306EB90
:103A2000800003EB0010B0FBF1F0216800F00F0004
:103A30002844886070BD0000003801400148FEF74E
:103A4000E7BD000064010020FEE7490050EAC12004
:103A500018BF04204A0D18BF40F0010040F2FF7269
:103A6000B2EB515F08BF40F00200012808BF0520FB
:103A700070474100080218BF04200A0E18BF40F02A
:103A800001004FF07F4232EA010108BF40F002001E
:103A9000012808BF05207047002809DB00F01F023D
:103AA000012191404009800000F1E020C0F880121F
:103AB00070470907090E002804DB00F1E02080F8B8
:103AC0000014704700F00F0000F1E02080F8141D92
:103AD0007047012103F01FB902F0E2BC0021084643
:103AE00002F052BD6FF05E01080703F014B9000048
:103AF0002DE9F04D0D4614464FF07F41B1EB440FD8
:103B00009EBF4FF0FF312960BDE8F08D4FF00040BF
:103B100040EA0421C4F3C750783810F01F024A4B22
:103B20004FEA601CC2F120067B44C4F3C750A0F1E9
:103B300078004FEA601003EB800053F82C3008BF88
:103B4000D0E901C612D0D0F804C093402CFA06F791
:103B50003B4387680CFA02FC27FA06F8C06807FAAC
:103B600002F2F0404CEA080C42EA0006A3FB0132E4
:103B7000ACFB01C0A6FB016101EB0C068E4234BF19
:103B80004FF0010C4FF0000CC1186144BCF1000F64
:103B900002D0814202D903E0814201D2012000E03B
:103BA0000020104400F120024FEA92188006CA0C4F
:103BB00040EA42304F03C5F8008002F0E3FD824640
:103BC000384602F0F7FD6FF0120103F0A4F8074643
:103BD000304602F0EFFD6FF0250103F09CF88346BC
:103BE0003946504602F05CFC594602F059FC00F59B
:103BF00000666FF30B065146304602F0E3FF39468C
:103C000002F0E0FF594602F04BFF104902F01AFEA5
:103C100007460F49304602F015FE394602F040FCD7
:103C200007460C49304602F00DFE394602F038FCDA
:103C300014F0004F08BFBDE8F08DC8F1805180F04E
:103C400000402960BDE8F08D68390000DB0FC92F06
:103C500022AAFD290000C92F30380A2801D20120EC
:103C600070470020704700002DE9F0474FF0684290
:103C700002EB40030C460546B3F1654F3CBF02EB37
:103C80004102B2F1654F7CD2C0F3C753C1F3C752B2
:103C90009A1A1B2A06DD10F0004F14BF76487748A9
:103CA000BDE8F08712F11A0F17DA11F0004F06D0B5
:103CB00010F0004F0CBF72487248BDE8F0872146F3
:103CC000284602F061FC0446FFF7D3FE042808BF33
:103CD000FFF708FF2046BDE8F0874200B2EB410F36
:103CE00025D910F0004F19BF674F684E684F694ED5
:103CF000224685F0004415460A4680F000411046F1
:103D00000A1A5200B2F1807F40D248406249DFF87F
:103D10008CA110F0004F18D04FF03F48384602F009
:103D200051FF07465146304602F04CFF17E011F0B4
:103D3000004F04BF00263746E2D010F0004F19BFF5
:103D4000574F584E584F594EDAE74FF07C58384687
:103D500002F0A6FB07465146304602F0A1FB06469C
:103D60004146284602F06EFD214602F099FB82464C
:103D70002146404602F066FD294602F091FE51467A
:103D800000E037E002F000FC044604E0214628464B
:103D900002F0FAFB0446014602F054FD8046444915
:103DA00002F050FD434902F07BFB414602F04AFD20
:103DB000414902F075FB414602F044FD3F4902F0E3
:103DC0006FFB414602F03EFD3D4902F069FB0546AE
:103DD0004146204602F036FD294602F033FD3146C9
:103DE00002F05EFB214602F05BFB3946BDE8F0477E
:103DF00002F056BB4FF07F42B2EB400F28BFB2EB50
:103E0000410F03D2BDE8F047FFF766BE40EA010369
:103E10005B0008BF44F0FF410AD0B2EB400F08BF7F
:103E2000B2EB410F06D125F0804024F080410546D9
:103E30000C4629E7B2EB400F12BF5FEA410245F0A2
:103E4000FF4004F000413FF41FAF4A0092EA4003F4
:103E50003FF51AAF002AACBF4FF09F464FF03E56D9
:103E6000314602F0EFFC05463146204602F0EAFCFE
:103E700004462846214607E7DB0FC9BFDB0FC93FD1
:103E8000DB0F4940DB0F49C00000C9BF22AAFDB9C2
:103E90000000C93F22AAFD390060ED3EC30ACE37BB
:103EA000000049C022AA7DBA0000494022AA7D3AFA
:103EB0002DAD65BD8FB8D53D0FB511BE61C84C3E67
:103EC000A8AAAABE2DE9F843044602464F4869460F
:103ED000B0EB420F09D94FF0E640B0EB420F94BF70
:103EE00000204FF0FF30009030E0494B22F00040BE
:103EF000834271D94749204602F0A4FC02F0A0FD9C
:103F0000804602F003FC00F0030000904249404666
:103F100002F098FC05464149404602F093FC0646F3
:103F20003F49404602F08EFC07463E49404602F0BB
:103F300089FC214602F0B4FD394602F043FE3146C9
:103F400002F040FE294602F03DFE04462546009C54
:103F5000002C45DB294614F0010F08461CD002F066
:103F600071FC0646304902F06DFC304902F098FDC4
:103F7000314602F067FC2E4902F092FA314602F017
:103F800061FC294602F05EFC294602F089FA14F031
:103F9000020F1CD0BDE8F88302F054FC0546254909
:103FA00002F050FC244902F07BFA294602F04AFC58
:103FB000224902F075FA294602F044FC4FF07E5186
:103FC00002F06EFA14F0020F08BFBDE8F88380F02B
:103FD0000040BDE8F883FFE71046FFF789FDB4E72E
:103FE0006800B0F17F4F3CBF4FF07E50BDE8F883D2
:103FF00007D14FF00100FCF7C5FABDE8F843FFF721
:104000006DBD2846BDE8F843FFF763BDB61F927E3D
:10401000490E494683F9223F1A61342C0020A2330D
:1040200000A0FD390000C93F336D4C39DA82083CED
:10403000A0AA2ABEB93AB2BACA9F2A3DDDFFFFBE86
:1040400070B50546FDF740FC4FEA0004FDF73CFC67
:10405000001BA842FAD370BD30B50D490D4A4FF090
:10406000E0240968B1FBF2F3A269434300200BE0AE
:10407000A169914202D8521A104404E065692A44A9
:10408000521A1044401C0A469842F1D330BD000039
:10409000B400002040420F001FB5044600200090ED
:1040A000019002900390A088A189084300901120FC
:1040B0000190032003906946A068FDF707FB0121EA
:1040C0002046FFF7CCF901212046FFF799F901209E
:1040D000FFF7C2FF1FBD70B50646FFF797F9002531
:1040E0002C4600213046FFF78BF90120FFF7B4FF83
:1040F00001213046FFF784F90120FFF7ADFF30467C
:10410000FFF793F9641C40EA4500E4B2C5B2082CFD
:10411000E7D300213046FFF773F90120FFF79CFF3A
:10412000284670BD10B50446FFF788F900212046E7
:10413000FFF795F90120FFF78FFF01212046FFF7D8
:104140005FF90120FFF788FF00212046FFF758F9AB
:10415000BDE810400120FFF77FBF70B50C46064652
:10416000FFF76CF9002500213046FFF749F90120DF
:10417000FFF772FF200601D5012100E00021304643
:10418000FFF76DF90120FFF767FF01213046FFF7C8
:1041900037F90120FFF760FF60066D1C040EEDB2D9
:1041A000082DE0D33046BDE870400021FFF728B964
:1041B00010B50446FFF742F901212046FFF74FF9F9
:1041C0000120FFF749FF01212046FFF719F90120DF
:1041D000FFF742FF00212046FFF712F9BDE810402B
:1041E0000120FFF739BF10B50446FFF727F9012179
:1041F0002046FFF734F90120FFF72EFF012120466A
:10420000FFF7FEF80120FFF727FF00212046FFF708
:1042100026F90120FFF720FF00212046FFF7F0F8E4
:10422000BDE810400120FFF717BF10B50446FFF7A7
:1042300005F900212046FFF7E3F80120FFF70CFF06
:1042400000212046FFF70BF90120FFF705FF0121B0
:104250002046FFF7D5F80120FFF7FEFE012120469A
:10426000FFF7FDF8BDE810400120FFF7F5BE70B57F
:104270000546FFF7CBF801212846FFF7C1F80120DA
:10428000FFF7EAFE2846FFF7D0F80446002128464B
:10429000FFF7B6F80120FFF7DFFE204670BD0000F3
:1042A00010B5044601F096F90449D1E90201C4E9C8
:1042B0000001BDE8104001F0ADB90000040000208D
:1042C00008B5FEF7C6FB8DF800000B4800231A4620
:1042D0006946006800F0F4F90848FEF78FFBFDF727
:1042E000F3FA064908620548FEF7EEFBFEF73CFBD1
:1042F0000A2000F045F9F6E71C000020F401002038
:10430000064D4FF480744FF47A7621462846FDF727
:10431000CDFA304600F034F9F7E70000000801401C
:10432000FDF7E0FAFFF7DFF9FEF746FDFEF79AFD2D
:10433000FEF7B0FDFEF7E2FD00F036F9FEF72AFDCC
:1043400000F044F9FEE70000064882B0816941F0C0
:1043500008018161806900F008000090024802B005
:10436000FFF79ABE00100240E40000202DE9F04162
:1043700015000E4604460BD01E48FFF734FFD0212F
:104380001C48FFF7EAFE1B48FFF771FFB0B902E0D7
:104390000020BDE8F08121461648FFF7DEFE1548F3
:1043A000FFF765FF50B91348FFF71DFFD1211148F2
:1043B000FFF7D3FE0F48FFF75AFF20B10D48FFF774
:1043C00034FF0120E5E700246F1E0CE0FFF783FEB9
:1043D00030550848BC4202DAFFF7A4FE01E0FFF7BF
:1043E000E7FE641CE4B20348AC42EFD3FFF71DFFC5
:1043F000CEE70000E400002010B504461748FFF7A0
:10440000F2FED0211548FFF7A8FE1448FFF72FFF52
:1044100090B921461148FFF7A0FE1048FFF727FF8B
:1044200050B90E48FFF7DFFED1210C48FFF795FE8B
:104430000A48FFF71CFF20B10848FFF7F6FE0020EE
:1044400010BD0648FFF747FE04460448FFF7B0FEDC
:104450000248FFF7EAFE204610BD0000E4000020FD
:1044600070B506460D461148FFF7BDFED0210F4836
:10447000FFF773FE0D48FFF7FAFE044631460B487E
:10448000FFF76BFE0948FFF7F2FE40EA04062946F3
:104490000648FFF762FE0548FFF7E9FE40EA06041A
:1044A0000248FFF7C2FE204670BD0000E400002075
:1044B0008CB0002002900390FEF758FD1F484FF08B
:1044C000FF33002204A9006800F09CF89DF810005A
:1044D00008B11BA200E01EA201210846FEF7EAFD7A
:1044E00002A8FFF7DDFE1EA201210220FEF7E2FD79
:1044F000029801F0A9FFCDE900011BA20A2105A83D
:10450000FBF7BEFE05AA06210220FEF7D3FD18A286
:1045100001210420FEF7CEFDFEF70EFD034616A294
:104520000A2108A8FBF7ACFE08AA08210420FEF720
:10453000C1FDC82000F024F8D2E700001C000020D4
:10454000696E6974206661696C6564210000000011
:10455000696E69742073756363657373210000006D
:10456000726F6C6C3A000000252E3166202000002E
:104570006375727374703A00256C6420200000002B
:1045800010B5EFF3058111B16FF0050403E00024CD
:1045900008B101F0F7F8204610BDEFF3058008B12F
:1045A00001F08CBD01F084BDEFF3058010B16FF018
:1045B000050070470448016811B14FF0FF307047A3
:1045C00001210160002070478400002010B5EFF346
:1045D000058010B16FF0050010BD08480168012981
:1045E00002D04FF0FF3010BD054A002182F8141DA3
:1045F0000221016001F02EF9002010BD840000208E
:104600000BE000E0F8B51D466FF003026FF0020604
:104610004FF00004EFF30583A3B1F0B1E9B1E5B9C0
:10462000002200926A4601F055FC012817D100983B
:10463000B0B10C494FF080500860BFF34F8FBFF30B
:104640006F8F0DE048B141B12A4601F0A7FB012868
:1046500006D025B16FF0010402E0144600E03446B4
:104660002046F8BD04ED00E0F8B514464FF0000513
:10467000EFF3058212BB08B301B3A4B1D4E902324F
:1046800063B1502A1AD32269C2B1676900FB01F6EF
:10469000B74213D3009501F0FAF907E072B9226925
:1046A00062B9626952B9002201F0D0F9050005D063
:1046B0000CB1216800E0002101F02EF82846F8BD79
:1046C000F8B51D466FF003026FF002064FF00004CC
:1046D000EFF30583ABB100B3F9B1F5B9002213468E
:1046E00000926A4601F0FAFA012818D10098B8B190
:1046F0000C494FF080500860BFF34F8FBFF36F8FAE
:104700000EE050B149B100232A4601F037FA0128E2
:1047100006D025B16FF0010402E0144600E03446F3
:104720002046F8BD04ED00E02DE9FF414FEA01030A
:104730004FF00005EFF30581039549BB40B3802797
:10474000182100244AB3166806B1344696691EB192
:104750003146761E382E02D21679F60703D0002095
:1047600004B0BDE8F081566906B1B708D2F808C0B8
:10477000BCF1000F0DD0D5685C2D18D312693AB189
:1047800036B18DE806103A46214601F058FC0390F8
:104790000DE0D6685EB912694AB903AACDE90012E4
:1047A000BAB2214601F01EFC012800D003950398FF
:1047B000D6E700002DE9F041134C0F460546E668A8
:1047C0002068001D00F0A0FE681C07D137B12168E9
:1047D000BDE8F0410D48091D00F0EFBE20683544EA
:1047E000B5424560216805D2A06BBDE8F041091DC6
:1047F00000F0CBBE606B091D00F0C7FEA06A8542C9
:1048000000D2A562BDE8F081340000203C07002002
:104810002DE9F041054600F0DDFE2D4CA068401C5E
:10482000A06020682B4F10B1606930B32BE0256089
:10483000A068012827D1002606EB860007EB800040
:1048400000F095FE761C382EF6D3234800F08FFE3C
:104850002148143000F08BFE1F48283000F087FEFE
:104860001D483C3000F083FE1B48503000F07FFEB6
:10487000194860631430A06305E02068E96AC06AE3
:10488000884200D82560606A401C60626864E86AFB
:104890002169884200D9206100EB800007EB80008D
:1048A000291D00F08AFE00F0B5FE606900280CD0DA
:1048B0002068E96AC06A884207D208494FF08050F0
:1048C0000860BFF34F8FBFF36F8FBDE8F08100002A
:1048D000340000208C020020EC06002004ED00E0F3
:1048E00038B500F077FE104C2068C8B90F4800F0CA
:1048F0003EFE0E48143000F03AFE0C48E0601430E2
:1049000020610A4B0020F03B009003F1500210217F
:104910000A2001F0BCF8206010B105A100F0FCFEF7
:10492000BDE8384000F076BE70000020400800204E
:10493000546D72510000000030B4026C0B46002A26
:104940000BD0C1681144C1608468A14201D30168E1
:10495000C16030BC1846FBF799BD30BC70472DE9EB
:10496000F041856B174604460026026C82B1C7B140
:10497000E068FBF78BFDE168206C091AE1602268B2
:10498000914202D2A168081AE060022F16D017E007
:104990002068A8B9A06801F0FDFB06460020A060D1
:1049A0000EE06068FBF772FD216C6068084460608F
:1049B000A168884204D32068606001E005B16D1EE3
:1049C0006D1CA5633046BDE8F08110B5044690F833
:1049D000590058B101280CD002280FD0502080F384
:1049E0001188BFF34F8FBFF36F8FFEE7206B00F08E
:1049F00025FE2046BDE8104000F020BE10BD00009E
:104A000010484FF40051420706D0C01D0D4920F058
:104A10000700411AC1F500510B4A00230144C2E9C5
:104A200000030839183A21F0070111604B600B6050
:104A30000B1AC0E9001393604FF0004053605061BF
:104A400070470000200F0020A0000020144E154CDD
:104A5000A6F29C474FF08058DFF84C9012E000BF60
:104A600000F0B8FDF068C568281D00F04DFDA06895
:104A7000401EA0606068401E606000F0CBFD2846CC
:104A8000FFF7A3FF60680028EAD138680128F9D948
:104A9000C9F80080BFF34F8FBFF36F8FF2E70000BC
:104AA000280700203400002004ED00E070B51D460A
:104AB000049C51B1C4F80020C4E90F010121204633
:104AC00001F018F884F84C5070BD2460F4E7000041
:104AD0002DE9F05F8846DDE90B9415468346910089
:104AE0009A460A9EA522206BFBF715FD6FF0030185
:104AF000206B01EB8501084420F00707780707D0F9
:104B0000502080F31188BFF34F8FBFF36F8FFEE704
:104B10000025B8F1000F0FD05FF00000221818F840
:104B2000001082F8341018F8001011B1401C102841
:104B3000F4D384F8435001E084F83450382E00D385
:104B40003726E662C4E91365201D00F01BFD04F161
:104B5000180000F017FD2461C6F138006462A061FE
:104B6000656584F8585052465946384600F060FA58
:104B70002060B9F1000F01D0C9F80040BDE8F09FF6
:104B800030B5114900E011460A688242FBD34B68F8
:104B90005C18844203D14068184448600846436862
:104BA0001C18944209D1084C183C2468A24209D030
:104BB00052681A4442600A6812680260814200D05A
:104BC000086030BD0460F9E7A000002070B5002443
:104BD00041600B4D0061914206D8D11A8269914221
:104BE00006D2011D286907E09A4203D2994201D3F7
:104BF000012403E0011DE86800F0C7FC204670BDF9
:104C00007000002010B5044600F0E4FCA06B28B151
:104C10005FF0000400F0FEFC204610BD0124F9E71F
:104C200030B589B03C4D6EE00498002806DADDE925
:104C30000601059A90470498002864DB069C606989
:104C400010B1201D00F060FC03A800F0D7F8024668
:104C500004980A2857D2DFE800F00505052D334AED
:104C600005052D3394F8280040F0010084F8280051
:104C70000599A069059B01442046FFF7A7FF68B38B
:104C8000216A2046884794F8280040073BD5002039
:104C900000900598A169002342181946204601F0AA
:104CA00083FBD8B9502080F31188BFF34F8FBFF337
:104CB0006F8FFEE714F8280F20F00100207022E02B
:104CC00094F8280040F0010084F828000598A061BD
:104CD00028B1811813462046FFF778FF13E05020D3
:104CE00080F31188BFF34F8FBFF36F8FFEE794F807
:104CF0002800810703D4204600F0A0FC03E020F048
:104D0000010084F82800002204A9286801F046F870
:104D1000002889D109B030BD700000202DE9FC4188
:104D20000F46054600F0DAFD01A800F067F80446DA
:104D3000019818B101F0A6FABDE8FC81254EAFB18B
:104D400030690068D0B30027291B3A46306800F06C
:104D5000F7FC01F097FA0028EED11F494FF0805080
:104D60000860BFF34F8FBFF36F8FE5E7A542EBD825
:104D700001F088FAF0682746C068C468201D00F07A
:104D8000C3FB94F82800410719D5A0692B464119A7
:104D90003A462046FFF71AFFA8B100200346014615
:104DA00000902A46204601F0FFFA60B9502080F3B7
:104DB0001188BFF34F8FBFF36F8FFEE707E020F03E
:104DC000010084F82800216A20468847B4E70127BB
:104DD000BAE700007000002004ED00E00648416BD7
:104DE000096829B1416BC968C9684968816270471F
:104DF0004FF0FF31FAE700003400002070B505469F
:104E000001F056F9064E0446B068844203D200F021
:104E100009F8012000E0002028602046B46070BD41
:104E200070000020F8B5194D20E0C068C46806681D
:104E3000201D00F069FB216A2046884794F828006D
:104E4000400713D5A0693044B04206D924616060A0
:104E5000211DE86800F099FB08E0002003460146A8
:104E600000903246204601F09FFA38B1E8680168A8
:104E70000029DAD12969C5E90310F8BD502080F373
:104E80001188BFF34F8FBFF36F8FFEE770000020D4
:104E900008484068401C4FF0500080F3118804D04F
:104EA000BFF34F8FBFF36F8FFEE7BFF34F8FBFF39B
:104EB0006F8FFEE7A8000020074CE068016841B151
:104EC000C0680021D0F80000FFF728FFFFF7A8FE18
:104ED000F3E701210020F7E7700000202DE9F04101
:104EE000044600F077FB94F9455004F1240609E0EC
:104EF000606A48B1304601F08DF908B100F070FCED
:104F00006D1E6DB2002DF3DC4FF0FF3684F8456066
:104F100000F080FB00F05EFB94F9445004F11007B0
:104F200009E0206948B1384601F074F908B100F091
:104F300057FC6D1E6DB2002DF3DC84F84460BDE8B3
:104F4000F04100F067BB00002DE9F0410546002765
:104F500000F0C4FC354E306808B9FFF751FD7069A8
:104F6000054216D1ADB1083568070ED005F007002F
:104F7000C0F108000544680707D0502080F311886D
:104F8000BFF34F8FBFF36F8FFEE715B17068854297
:104F900002D901F077F939E02448183001460C684D
:104FA00001E020460C466168A94202D2216800292E
:104FB000F7D131688C42ECD00768216801606068E5
:104FC0000837411B10290ED96019420707D050201D
:104FD00080F31188BFF34F8FBFF36F8FFEE74160FF
:104FE0006560FFF7CDFD61687068401A7060B26857
:104FF000904200D2B060706901430020C4E9000112
:10500000F068401CF06001F03DF90FB900F0A6FA1D
:10501000780707D0502080F31188BFF34F8FBFF37C
:105020006F8FFEE73846BDE8F08100008800002061
:1050300010B5031F4FF080741C601B1F21F001018D
:105040001960191F024B0B60143940380A6010BDFB
:10505000914E00082DE9F84304460246524869463D
:10506000B0EB420F09D94FF0E640B0EB420F94BFCE
:1050700000204FF0FF30009030E04C4B22F0004019
:10508000834271D94A49204601F0DCFB01F0D8FC8B
:10509000804601F03BFB00F003000090454940468C
:1050A00001F0D0FB05464449404601F0CBFB0646E3
:1050B0004249404601F0C6FB07464149404601F0DF
:1050C000C1FB214601F0ECFC394601F07BFD314685
:1050D00001F078FD294601F075FD04462546009C47
:1050E000002C45DB294614F0010F08461ED001F0C4
:1050F000A9FB0546334901F0A5FB334901F0D0F97E
:10510000294601F09FFB314901F0CAF9294601F017
:1051100099FB4FF07E5101F0C3F914F0020F08BF64
:10512000BDE8F88380F00040BDE8F88301F08AFB19
:105130000646274901F086FB264901F0B1FC3146BD
:1051400001F080FB244901F0ABF9314601F07AFB14
:10515000294601F077FB294601F0A2F914F0020F6D
:10516000E0D1BDE8F883FFE71046FEF7C1FCB4E7E5
:105170006800B0F17F4F09D22846FEF77AFC042878
:1051800008BFFEF7AFFC2846BDE8F88306D1012032
:10519000FBF7F8F9BDE8F843FEF7A0BC2846BDE8E8
:1051A000F843FEF796BC0000B61F927E490E4946B2
:1051B00083F9223F1A61342C0020A23300A0FD396C
:1051C0000000C93FB93AB2BACA9F2A3DDDFFFFBE0F
:1051D000336D4C39DA82083CA0AA2ABE70B5054668
:1051E00001F068FC044620F00040C0F1FF40C00F11
:1051F00008D025F00040C0F1FF40C00F04BF0120DF
:10520000FBF7C0F9204670BD86B0002003900490E3
:105210003548FEF781F94FF4006251423248FEF7FB
:10522000B5F93448314A32498DE807002E48002349
:105230001A4631492038FDF7E9FF30493048FEF77A
:10524000AAF8304C4FF0FF352B46002203A9206806
:10525000FFF7D8F90028F7D1FFF79FF92A4EDFF8BA
:10526000ACB0DFF8ACA00546A1463223002203A96A
:10527000D9F80000FFF7C6F98046FFF78EF9074618
:10528000401B01F097FA314601F0DCFA04463D4636
:10529000B04201DA344602E05C4500DD5C46B8F11C
:1052A000000F09D010482038FDF7BCFF002114483A
:1052B000FEF775F8002113E00399514501DD5146D1
:1052C00003E01448814200D90146074822462038AD
:1052D000FDF7ACFF014622460948FEF763F8014698
:1052E0000148FEF757F9C0E7380200200000C0402F
:1052F000000096440000FA430000A0400080BB4537
:1053000014000020200000206F12833ACDCC4C3DC9
:1053100000003443000034C32DE9F843044602463C
:105320004C486946B0EB420F09D94FF0E640B0EB6C
:10533000420F94BF00204FF0FF30009030E0464B0A
:1053400022F00040834265D94449204601F07AFAB0
:1053500001F076FB804601F0D9F900F003000090DF
:105360003F49404601F06EFA05463E49404601F08D
:1053700069FA06463C49404601F064FA07463B4953
:10538000404601F05FFA214601F08AFB394601F000
:1053900019FC314601F016FC294601F013FC0446C5
:1053A000009D002D3ADB2146084601F04BFA0646E7
:1053B0002F4901F047FA2F4901F072F8314601F008
:1053C00041FA2D4901F06CF8314601F03BFA2B49C6
:1053D00001F066F8314601F035FA294901F060F82C
:1053E000314601F02FFA274901F05AF8314601F011
:1053F00029FA214601F026FA214601F051F815F06C
:10540000010F08BFBDE8F8830146BDE8F8431E4818
:1054100001F0BAB81046FEF76BFBC0E76000B0F1D0
:105420007F4F09D22046FEF724FB042808BFFEF771
:1054300059FB2046BDE8F88306D10120FBF7A2F80E
:10544000BDE8F843FEF74ABB2046BDE8F843FEF747
:1054500040BB0000B61F927E490E494683F9223FA9
:105460001A61342C0020A23300A0FD390000C93F8E
:10547000BBE9223C0C6D063B8A76CE3CACB5593D6F
:1054800035A1083E29AAAA3E000080BF10B501211F
:1054900000220846FFF7E8F8154C0022082120609A
:1054A0000120FFF7E1F86060124A00211248FFF77F
:1054B0003BF9A060C0B10F4A002124320F48FFF72A
:1054C00033F9E06080B10B4A002148320C48FFF705
:1054D0002BF9206140B1074A00216C320948FFF7DF
:1054E00023F96061002801D1FCF775F810BD0000B8
:1054F0001C000020B86D000801430008B1440008FA
:10550000C142000809520008D0E9013201699A60DD
:10551000D0E901235A604A68824201D182684A6018
:10552000002202610868401E086008687047000099
:10553000034B036003F15C0008608020106070473B
:1055400068080020044B036003F15C0008604FF41E
:105550008070106070470000C40A0020704750201F
:1055600080F31188BFF34F8FBFF36F8FFEE700F119
:1055700008014FF0FF32C0E90112C1600161002152
:105580000160704700210161704730B50B685A1CFB
:1055900002D000F1080202E0026904E022465468E9
:1055A00025689D42FAD953684B6099608A605160C2
:1055B00008610168491C016030BD42684A60936817
:1055C0008B6093685960916008610168491C0160B3
:1055D00070470000502080F31188BFF34F8FBFF356
:1055E0006F8F0A494868401C486001280CD1084860
:1055F000006810F0FF0F07D0502080F31188BFF330
:105600004F8FBFF36F8FFEE770470000A8000020A8
:1056100004ED00E00849486828B1401E486001D107
:1056200080F311887047502080F31188BFF34F8FAB
:10563000BFF36F8FFEE70000A800002070B50028C0
:105640002AD0164DA0F1080460686969084207D1A4
:10565000502080F31188BFF34F8FBFF36F8FFEE7A9
:1056600022683AB1502080F31188BFF34F8FBFF307
:105670006F8FFEE78843606000F030F9606869680A
:10568000084468602046FFF77BFA2869401C2861BF
:10569000BDE8704000F0F6BD70BD0000880000203D
:1056A0004FF0E02000210161816105494FF47A72D9
:1056B0000968B1FBF2F1491E4161072101617047A0
:1056C000B400002010B5FAF7B7FD114910280ED329
:1056D00000F1E02090F8F0030A78904207D25020C1
:1056E00080F31188BFF34F8FBFF36F8FFEE7094838
:1056F0000068896800F4E060884207D9502080F390
:105700001188BFF34F8FBFF36F8FFEE710BD00000E
:10571000A80000200CED00E010B5084B002200BFEF
:1057200053F832401CB1521C082AF9D310BD43F87B
:10573000321003EBC201486010BD00004C02002093
:1057400070B515460E460446FFF744FF94F9441021
:105750000020491C01D184F8440094F94510491CEB
:1057600001D184F84500FFF755FFA06B28B92A4600
:10577000314604F1240000F051F82046BDE87040A5
:10578000FFF7ACBB10B5020014D00F48006B38B166
:10579000502080F31188BFF34F8FBFF36F8FFEE768
:1057A00000F09CF800211046FFF704F800F06AFDB5
:1057B000002807D105494FF080500860BFF34F8F94
:1057C000BFF36F8F10BD00003400002004ED00E037
:1057D00002490A6A0260C9684160704734000020CB
:1057E00001490120C86170473400002010B50C4603
:1057F00050B1094909681831FFF7C7FE2046BDE8D6
:1058000010400121FEF7D6BF502080F31188BFF36E
:105810004F8FBFF36F8FFEE73400002070B5144642
:105820000D4668B10A4909681831FFF7C6FE0CB188
:105830004FF0FF3521462846BDE87040FEF7BABF5D
:10584000502080F31188BFF34F8FBFF36F8FFEE7B7
:105850003400002030B587B00024039405AA04A9C1
:1058600003A80494FFF764FEDDE903010094CDE989
:105870000110002315A11748059A00F0E0FB164D12
:105880000028E8621FD000F05FFD012809D0401C0D
:1058900019D1502080F31188BFF34F8FBFF36F8F62
:1058A000FEE7502080F31188BFF34F8FBFF36F8F57
:1058B0004FF0FF30A86201206861EC6007B0BDE8DE
:1058C000304000F059B807B030BD000049444C45A5
:1058D000000000004D4A0008340000200248016B1F
:1058E000491C0163704700003400002010B5204CB3
:1058F000206B10B10120E06110BD0020E061206844
:105900004FF0A531006B02688A4208D142688A4292
:1059100005D182688A4202D1C068884204D02168D9
:1059200020683431FFF71BFE2069124901E0B8B14D
:10593000401E00EB800251F82220002AF7D000EB35
:10594000800201EB820101F108034A6852684A6053
:105950009A4201D152684A60D1682160206110BD2D
:10596000502080F31188BFF34F8FBFF36F8FFEE796
:10597000340000208C0200201CB5264908780190D4
:10598000FF20087008788DF800009DF800009DF851
:10599000002000F0F000904207D0502080F31188E2
:1059A000BFF34F8FBFF36F8FFEE79DF800001A4CD7
:1059B00000F0500020700720A06005E09DF8002056
:1059C00052008DF80020401E9DF800201206F5D4EC
:1059D000A060032807D0502080F31188BFF34F8FB9
:1059E000BFF36F8FFEE74FF44070A060019808701E
:1059F0000A48016841F470010160016841F070419A
:105A00000160FFF74DFE00206060FAF7DFFB002029
:105A10001CBD000000E400E0A800002020ED00E034
:105A200010B5502080F31188BFF34F8FBFF36F8FF5
:105A300000F04CFB18B104494FF080500860002082
:105A400080F3118810BD000004ED00E0F8B51746A2
:105A50000E46050013D005FB06F05030FFF774FA30
:105A600004000AD0002084F8460004F150023B46AE
:105A7000314628460094FFF719F82046F8BD50201B
:105A800080F31188BFF34F8FBFF36F8FFEE738B5F8
:105A9000049D18B153B1CAB181B120E0502080F308
:105AA0001188BFF34F8FBFF36F8FFEE7502080F355
:105AB0001188BFF34F8FBFF36F8FFEE7502080F345
:105AC0001188BFF34F8FBFF36F8FFEE739B15020BE
:105AD00080F31188BFF34F8FBFF36F8FFEE7502421
